:02000002B0004C
:1040000000400B004E520B00000006000C000502A1
:084010000401B41400000000DB
:04401800744F0B00D6
:10401C00034613F8012B002AFBD1181A01387047FC
:10402C0009480A49884208B505D0094A824202D09B
:10403C00121A00F0EFFE0748074A0021121A00F08E
:10404C00F7FE014808BD00BF3CE60320B4510B004D
:10405C00A8E60320A8E60320F0E7032070B5074E7E
:10406C00074C00F0C9FDA41BA4080025AC4200D1EC
:10407C0070BD56F8043B98470135F7E76C510B00BF
:10408C0090510B0000F013B808B500F019F8BDE81A
:10409C00084000F069BD00F0CDB900F0D3B900784C
:1040AC00B0FA80F04009704701230370704708B5DF
:1040BC0000F0D4FCBDE808404FF4165100F0C2BC2F
:1040CC0038B50E2000F008FE064D288000F0C6FC26
:1040DC00298804460A2200F0C6FB2046BDE8384079
:1040EC0000F0B5BBB4E60320094B0A4A10B5002416
:1040FC00C3E900449A60032000F010F92146012026
:10410C0000F014F90E2000F0E7FD034B188010BDF1
:10411C00A8E603200000FFFFB4E6032008B5024B1D
:10412C001B685B6C019308BD4802030008B5024B89
:10413C001B685B68019308BD1802030008B5024BAD
:10414C001B685B69019308BD1802030008B5024B9C
:10415C001B685B68019308BD2C02030008B5024B79
:10416C001B681B6B019308BD2C02030008B5024BA6
:10417C001B681B6A019308BD2802030008B5024B9B
:10418C001B685B6A019308BD2802030008B5024B4B
:10419C001B689B6A019308BD2802030008B5024BFB
:1041AC001B68DB6A019308BD2802030008B5024BAB
:1041BC001B681B6B019308BD2802030008B5024B5A
:1041CC001B685B6B019308BD2802030008B5024B0A
:1041DC001B681B6C019308BD2802030008B5024B39
:1041EC001B685B69019308BD6402030008B5024BB0
:1041FC001B689B68019308BD6802030008B5024B5D
:10420C001B68DB68019308BD6802030008B5024B0C
:10421C001B68DB69019308BD3002030008B5024B33
:10422C001B681B6A019308BD3002030008B5024BE2
:10423C001B68DB68019308BD3C02030008B5024B08
:10424C001B681B69019308BD3C02030008B5024BB7
:10425C001B685B69019308BD3C02030008B5024B67
:10426C001B689B69019308BD3C02030008B5024B17
:10427C001B68DB69019308BD3C02030008B5024BC7
:10428C001B681B6A019308BD3C02030008B5024B76
:10429C001B689B6A019308BD3C02030008B5024BE6
:1042AC001B681B6C019308BD3C02030008B5024B54
:1042BC001B681B68019308BD4C02030008B5024B38
:1042CC001B685B68019308BD4C02030008B5024BE8
:1042DC001B681B69019308BD4C02030008B5024B17
:1042EC001B685B69019308BD4C02030008B5024BC7
:1042FC001B689B69019308BD4C02030008B5024B77
:10430C001B68DB69019308BD4C02030008B5024B26
:10431C001B681B6A019308BD4C02030008B5024BD5
:10432C001B685B68019308BD2002030008B5024BB3
:10433C001B68DB6A019308BD2002030008B5034B20
:10434C001B68D3F88830019308BD000020020300DD
:10435C0008B5034B1B68D3F89430019308BD0000DB
:10436C002002030008B5024B1B68DB6B019308BDF0
:10437C004402030008B5024B1B685B68019308BD3F
:10438C004002030008B5024B1B689B68019308BDF3
:10439C004002030008B5024B1B68DB68019308BDA3
:1043AC004002030008B5024B1B681B69019308BD52
:1043BC004002030008B5024B1B685B69019308BD02
:1043CC004002030008B5024B1B689B69019308BDB2
:1043DC004002030008B5024B1B68DB69019308BD62
:1043EC004002030008B5024B1B681B6A019308BD11
:1043FC004002030008B5024B1B681B6B019308BD00
:10440C004002030008B5024B1B685B6B019308BDAF
:10441C004002030008B5024B1B681B6C019308BDDE
:10442C004002030008B5024B1B685B6C019308BD8E
:10443C004002030008B5024B1B681B68019308BDC2
:10444C001C02030008B5024B1B685B68019308BD96
:10445C001C02030008B5024B1B681B6C019308BDC2
:10446C001C02030008B5024B1B685B6C019308BD72
:10447C001C020300024800230360FFF74FBE00BF7D
:10448C00B8E60320002240681146FFF7ABBF0022BC
:10449C0040681146FFF7B6BF40680022FFF7AABF7D
:1044AC004068002281F00101FFF794BF00234068AF
:1044BC001A461946FFF786BF002340681A4619466C
:1044CC00FFF778BF002240681146FFF76BBF002250
:1044DC0040681146FFF756BF406800220221FFF7E3
:1044EC0059BF002340681A46FFF744BF024B032212
:1044FC005A60024A1A607047BCE60320904F0B00CA
:10450C007047F8B5064615460C468F18BC4206D0C7
:10451C00336814F8011B9B6830469847F6E7284629
:10452C00F8BD007C0022FFF721BE007C0021FFF7C4
:10453C0025BE007C0021FFF729BE007C0021FFF77F
:10454C002DBE007C0021FFF731BE10B514210446AE
:10455C00FFF7A3FD204610BD38B5044615464FF4B1
:10456C007A730022C4E90123094B217408462360A5
:10457C002946FFF72BFEBF3008D16B69DB0705D549
:10458C006868FFF75FFFE868FFF75CFF204638BDFF
:10459C00CC4F0B00704710B518210446FFF77DFD7A
:1045AC00204610BDF0B5037D062B8DB00E4600F1F4
:1045BC0004074FF0000412D000F1080515F8011D96
:1045CC000A22304600F04FF9AF42044419D0002CB7
:1045DC00F4D02E21304600F037F90444EEE72F23B7
:1045EC006A4639460A208DF80040FFF7F7FD684609
:1045FC00FFF70EFD33680246DB6869463046984784
:10460C00044620460DB0F0BD10B5054B04461122F2
:10461C0040F8043B002100F00BFC204610BD00BF0D
:10462C00F44F0B000346074A10B543F8042B01F175
:10463C00100251F8044B43F8044B9142F9D10A781B
:10464C001A7010BDF44F0B0010B59DF8084044EAE9
:10465C00032343EA024242EA0161042341600375E9
:10466C0010BD000007B5064B0360CB7800938B7828
:10467C004A780978FFF7E8FF03B05DF804FB00BF48
:10468C00F44F0B00014B024A1A607047C4E603203A
:10469C0000500B00002340681A46FFF76BBE4068C1
:1046AC0000220221FFF776BE002240681146FFF778
:1046BC0069BE002240681146FFF774BE00234068B3
:1046CC001A461946FFF776BE002340681A4619466B
:1046DC00FFF778BE40680021FFF79CBE40680021C0
:1046EC00FFF7A0BE4068002281F00101FFF772BE07
:1046FC0040680022FFF77EBE002240681146FFF79B
:10470C0081BE002240681146FFF76CBE2DE9F043D4
:10471C0095B014460D460746FFF776FF00211C2284
:10472C000DA8009100F084FB40230C9320466B46AF
:10473C000CAA0021FFF762FD044600284BD102466B
:10474C0001216868FFF72EFE022180462246686828
:10475C00FFF728FE009E81462146002E3BD0002903
:10476C0039D17368022B03D00A2B11D0F669F4E708
:10477C00B8F1000FFAD0716906A8043107ADFFF744
:10478C0071FF0FCD3C1D0FC42B6823704146EDE724
:10479C00B9F1000FEAD07469102201A800F048FBAF
:1047AC0006238DF8143001AD04F108031834186891
:1047BC0059682A4603C20833A3421546F7D101A90A
:1047CC0006A807ADFFF72EFF0FCD3C1D0FC42B68BD
:1047DC0023704946CAE70098FFF708FD384615B024
:1047EC00BDE8F083024B034A1A6000225A607047FE
:1047FC00C8E603200C500B00F8B506460D468F1882
:10480C000024BD420CD0336815F8011B9B68304660
:10481C009847031E01DB1C44F3E7002C08BF1C4621
:10482C002046F8BD13B50446084659B10191FFF76F
:10483C00EFFB23680199DB680246204602B0BDE815
:10484C001040184702B010BD03689B68184738B574
:10485C000D210546FFF7F8FF0A2104462846FFF70D
:10486C00F3FF204438BD30B58BB00023012A8DF8FE
:10487C00243098BF0A2209AC0D46B1FBF2F101FBC2
:10488C00125303F0FF03092B94BF30333733DBB2E1
:10489C00AA4204F8013DEFD92146FFF7C3FF0BB044
:1048AC0030BD0000014B00229A607047D0E6032017
:1048BC0010B5044608462170FFF7A8FC002363607E
:1048CC00204610BD054B02221A60054B054A9A6022
:1048DC000020C3E90000FFF721BD00BFECE6032078
:1048EC00E0E603200000FFFF024B1A68024B1A603F
:1048FC00704700BF3CE60320F0E60320704741748C
:10490C00704708B5007CFFF7C1FC20EAE07008BDD9
:10491C0008B5007CFFF792FC20EAE07008BD08B5F2
:10492C00007CFFF79BFC40EAE07008BD08B5007CFA
:10493C00FFF78CFC40EAE07008BD007CFFF796BCEA
:10494C0037B5457C04462DB1207C03B0BDE8304022
:10495C00FFF76CBC007C0191FFF798FC00280199D3
:10496C00F2DC284603B030BD10B514210446FFF725
:10497C0094FB204610BD000010B54FF47A7304462A
:10498C00084611460022C4E90123044B236001238D
:10499C0020746374FFF782FC204610BD64500B003A
:1049AC00417470477047704708B50021007CFFF7D1
:1049BC009DFC40EAE07008BD08B50121007CFFF7C2
:1049CC0095FC40EAE07008BD08B5007CFFF786FC5A
:1049DC0020EAE07008BD08B5007CFFF777FC20EA00
:1049EC00E07008BD13B50446007C0191FFF776FC1E
:1049FC000028019901DC607C20B1207CFFF77EFC53
:104A0C0020EAE07002B010BD007CFFF77FBC10B54F
:104A1C0014210446FFF741FB204610BD10B54FF49E
:104A2C007A73044608460021C4E90113044B236041
:104A3C000123207463741146FFF738FC204610BD27
:104A4C0094500B00007C0022FFF738BC10B51422E8
:104A5C000446002100F0ECF9204610BD10B50F4CB7
:104A6C0088B003A8FFF7F2FF2178BFF35B8F11F03A
:104A7C0001010FD120460191FFF711FB019948B1BB
:104A8C0003AA0748FFF7CAFF2046FFF70DFB0548AE
:104A9C0000F0BAF9024808B010BD00BFF4E60320DC
:104AAC00F8E60320B1490B00002240681146FFF7DD
:104ABC0079BC002240681146FFF794BC0022406884
:104ACC001146FFF79FBC40680022FFF793BC40687B
:104ADC00002281F00101FFF77DBC002340681A46DB
:104AEC001946FFF76FBC002340681A461946FFF7BA
:104AFC0061BC002240681146FFF744BC40680022AC
:104B0C000221FFF747BC002340681A46FFF732BC6E
:104B1C00024B04225A60024A1A6070470CE70320C9
:104B2C00C4500B00014B1860704700BF40E60320D7
:104B3C0008B50B4B43B1FFF791FF03681B6998470E
:104B4C00002801DDAFF30080064B43B100F036F9CD
:104B5C0003681B699847002801DDAFF3008008BD8E
:104B6C00000000000000000008B5FFF7E1FFFFF7B0
:104B7C00E5FA014B186008BD28E703200548064AF2
:104B8C00064908B5121A00F045F9054B054A1A609A
:104B9C0008BD00BF00F4032004F4032020520B00D6
:104BAC0000F403201E1C279A07B5002300931A4615
:104BBC006FF07701FFF7CCFB03B05DF804FB00004E
:104BCC0007B543880A2B08D0502B0BD1094B1B6817
:104BDC004BB103B05DF804EB1847FFF7E5FF03B0EA
:104BEC005DF804FB002300931A466FF07701FFF782
:104BFC00AFFBF4E718E7032010B512480021FFF7CC
:104C0C0031FC114B1A68114B9A42114B0CBF01220B
:104C1C0000221A7001D0FFF7B1FFFFF787FA0446A4
:104C2C0000F00EF90B4B13B12046AFF300800021BE
:104C3C000848FFF797FBBDE8104007480021FFF735
:104C4C007DBB00BF314B0B0000F403201E1C279AC8
:104C5C0014E7032000000000CD4B0B00232813B5F4
:104C6C0002D9002002B010BDA0F10B03022B1AD800
:104C7C00174C2178BFF35B8F11F001010BD120464B
:104C8C000191FFF70CFA019928B11248FFF710FEB9
:104C9C002046FFF709FA0F4B1878FFF7BFFA0028E8
:104CAC00DFD10120DEE7012809D800F047F8002108
:104CBC00007CFFF783FA80F00100C0B2D2E709381C
:104CCC000128EED800F07AF8007CFFF7D7FAF2E76B
:104CDC001CE7032020E703200D2810B504469CBFD9
:104CEC000E34A4B22046FFF7B9FF50B10321204681
:104CFC00FFF72CFA032804D12046BDE81040FFF73B
:104D0C002DBA002010BD704738B50A4B0360012343
:104D1C00044643610849202000F074F820256060A7
:104D2C000549A560284600F06DF8C4E90305204646
:104D3C0038BD00BF18000100F8500B0030B50E4D07
:104D4C002978BFF35B8F11F0010487B011D128468D
:104D5C00FFF7A5F968B16846FFF7D6FF6A4621460A
:104D6C000648FFF7F9FB2846FFF79EF9044800F0C8
:104D7C004BF8024807B030BD2CE7032030E7032086
:104D8C00134D0B007047000038B5044614252A4615
:104D9C00002100F04DF82580402507492581284643
:104DAC00258200F02FF804496060284600F02AF8AC
:104DBC00E060204638BD00BFF8500B0030B50E4DFA
:104DCC002978BFF35B8F11F0010487B011D128460D
:104DDC00FFF765F968B101A8FFF7D6FF01AA2146D4
:104DEC000648FFF7C9FD2846FFF75EF9044800F0B6
:104DFC000BF8024807B030BD44E7032048E7032016
:104E0C00914D0B00FFF747B9002301461A4618468F
:104E1C0000F044B80A44914200F1FF3300D17047CE
:104E2C0010B511F8014B03F8014F9142F9D110BDA7
:104E3C0002440346934200D1704703F8011BF9E783
:104E4C0038B5104B1D68AB6B0446B3B91820FFF78F
:104E5C00F1FA0246A86320B90B4B0C484221FFF72C
:104E6C00F9FA0B490B4BC0E900130B4B83600B2376
:104E7C00838100210120C2E90401AB6B00221C617B
:104E8C005A6138BD40E60320F9500B0010510B005D
:104E9C000E33CDAB34126DE6ECDE05002DE9F84394
:104EAC00DFF8B8800646D8F800001F460D4691463C
:104EBC0000F056F8254B1C6834B9254C1C60254B6A
:104ECC0013B11B68C4F8883063681F2B07DDD8F852
:104EDC00000000F047F84FF0FF30BDE8F8834EB308
:104EEC00D4F8880088B91C4B23B9D8F8000000F01E
:104EFC0038F8F0E74FF48470FFF79CFA0028F4D0F0
:104F0C000023C0E94033C4F88800636840F823905C
:104F1C0001229A4000EB8301D0F800311343C0F812
:104F2C000031022EC1F8807002BFD0F80431134357
:104F3C00C0F804316368D8F800005A1C0233626070
:104F4C0044F8235000F00EF80020C6E7E8E70320F1
:104F5C005CE703200000000041440B00A4E60320A2
:104F6C0070477047704700002D400B0069400B00E4
:104F7C0091400B0095400B00000000000000000069
:104F8C0000000000EF440B00E5440B00DB440B0079
:104F9C00D1440B00C5440B00B9440B00E1460B0097
:104FAC00E9460B00AD440B00A5440B009B440B00E1
:104FBC0091440B0019470B0000000000000000009A
:104FCC000D450B0057450B002F450B000F450B00F3
:104FDC0037450B003F450B0047450B004F450B0079
:104FEC000000000000000000B1450B00A1450B00C3
:104FFC00A3450B0061707000000000000000000071
:10500C00A1460B00AB460B00B5460B00BF460B0090
:10501C00C9460B00D5460B00E1460B00E9460B00D8
:10502C00F1460B00FD460B0005470B000F470B002C
:10503C0019470B0025592D256D2D25645425483A0B
:10504C00254D3A2553257A0061736374696D6500AB
:10505C00000000000000000009490B0075490B001E
:10506C004D490B0005480B001D490B0039490B003D
:10507C002B490B0047490B000B490B000F490B0048
:10508C000000000000000000B3490B001B4A0B009D
:10509C00F1490B0005480B00E3490B00B5490B0027
:1050AC00C5490B00154A0B00D5490B00AD490B0047
:1050BC000000000000000000134B0B00094B0B001C
:1050CC00FF4A0B00B54A0B00F34A0B00E74A0B00F2
:1050DC00E1460B00E9460B00DB4A0B00D34A0B0000
:1050EC00C94A0B00BF4A0B0019470B00005245453B
:1050FC004E54206D616C6C6F6320737563636565D2
:10510C00646564002F746D702F6A656E6B696E73C5
:10511C002D4743432D31302D706970656C696E6578
:10512C002D34385F32303230313132345F313630F9
:10513C00363138303633392F7372632F6E65776C96
:10514C0069622F6E65776C69622F6C6962632F736D
:10515C0074646C69622F72616E642E6300000000CF
:10516C00F5400B0081440B00F9440B0091460B00F9
:10517C00F1470B00B1480B00D1480B00F5480B0070
:04518C001D4B0B00AC
:10519000040000001400000003000000474E55000A
:1051A00086778188A93F39E7D0742955A466B4541D
:0451B000B5E3C69607
:1051B40054500B0044E603200000000000000000EF
:1051C40000000000000000000000000000000000DB
:1051D40000000000000000000000000000000000CB
:1051E40000000000000000000000000000000000BB
:1051F40000000000000000000000000000000000AB
:10520400000000000000000000000000000000009A
:0C5214000000000000000000ECE7032098
:04522000000000008A
:10522A0000000102030405060708090A0B0C0D0E0B
:10523A000F101112131415161718191A1B1C1D1EFC
:04524A001F202800F9
:04524E007856341248
:04000003B000401CED
:00000001FF
