:02000002B0004C
:1040000000400B00E2520B00000006000C0005020D
:084010000401B41400000000DB
:0440180008500B0041
:10401C00034613F8012B002AFBD1181A01387047FC
:10402C0009480A49884208B505D0094A824202D09B
:10403C00121A00F039FF0748074A0021121A00F043
:10404C0041FF014808BD00BF3CE6032048520B006D
:10405C00A8E60320A8E60320F0E7032070B5074E7E
:10406C00074C00F0E9FDA41BA4080025AC4200D1CC
:10407C0070BD56F8043B98470135F7E700520B002A
:10408C0024520B0000F013B808B500F01DF8BDE881
:10409C00084000F089BD00F0F5B900F0FBB90078DC
:1040AC00B0FA80F04009704701230370704708B5DF
:1040BC0000F0F4FC4FF4165100F0E4FCBDE80840AD
:1040CC000121052000F028BE10B50E2000F04EFE98
:1040DC00084C208080B200F0F5F90121052000F099
:1040EC002CFE208800F0EEF9BDE8104000210520E0
:1040FC0000F023BEB4E60320094B0A4A10B5002495
:10410C00C3E900449A60032000F028F921460120FD
:10411C0000F034F90E2000F029FE034B188010BD7E
:10412C00A8E603200000FFFFB4E6032008B5024B0D
:10413C001B685B6C019308BD4802030008B5024B79
:10414C001B685B68019308BD1802030008B5024B9D
:10415C001B685B69019308BD1802030008B5024B8C
:10416C001B685B68019308BD2C02030008B5024B69
:10417C001B689B68019308BD2C02030008B5024B19
:10418C001B68DB68019308BD2C02030008B5024BC9
:10419C001B681B69019308BD2C02030008B5024B78
:1041AC001B681B6B019308BD2C02030008B5024B66
:1041BC001B681B6A019308BD2802030008B5024B5B
:1041CC001B685B6A019308BD2802030008B5024B0B
:1041DC001B689B6A019308BD2802030008B5024BBB
:1041EC001B68DB6A019308BD2802030008B5024B6B
:1041FC001B681B6B019308BD2802030008B5024B1A
:10420C001B685B6B019308BD2802030008B5024BC9
:10421C001B681B6C019308BD2802030008B5024BF8
:10422C001B685B69019308BD6402030008B5024B6F
:10423C001B689B68019308BD6802030008B5024B1C
:10424C001B68DB68019308BD6802030008B5024BCC
:10425C001B68DB69019308BD3002030008B5024BF3
:10426C001B681B6A019308BD3002030008B5024BA2
:10427C001B68DB68019308BD3C02030008B5024BC8
:10428C001B681B69019308BD3C02030008B5024B77
:10429C001B685B69019308BD3C02030008B5024B27
:1042AC001B689B69019308BD3C02030008B5024BD7
:1042BC001B68DB69019308BD3C02030008B5024B87
:1042CC001B681B6A019308BD3C02030008B5024B36
:1042DC001B689B6A019308BD3C02030008B5024BA6
:1042EC001B681B6C019308BD3C02030008B5024B14
:1042FC001B681B68019308BD4C02030008B5024BF8
:10430C001B685B68019308BD4C02030008B5024BA7
:10431C001B681B69019308BD4C02030008B5024BD6
:10432C001B685B69019308BD4C02030008B5024B86
:10433C001B689B69019308BD4C02030008B5024B36
:10434C001B68DB69019308BD4C02030008B5024BE6
:10435C001B681B6A019308BD4C02030008B5024B95
:10436C001B685B68019308BD2002030008B5024B73
:10437C001B685B69019308BD2002030008B5024B62
:10438C001B68DB6A019308BD2002030008B5034BD0
:10439C001B68D3F88830019308BD0000200203008D
:1043AC0008B5034B1B68D3F89430019308BD00008B
:1043BC002002030008B5024B1B68DB6B019308BDA0
:1043CC004402030008B5024B1B685B68019308BDEF
:1043DC004002030008B5024B1B689B68019308BDA3
:1043EC004002030008B5024B1B68DB68019308BD53
:1043FC004002030008B5024B1B681B69019308BD02
:10440C004002030008B5024B1B685B69019308BDB1
:10441C004002030008B5024B1B689B69019308BD61
:10442C004002030008B5024B1B68DB69019308BD11
:10443C004002030008B5024B1B681B6A019308BDC0
:10444C004002030008B5024B1B681B6B019308BDAF
:10445C004002030008B5024B1B685B6B019308BD5F
:10446C004002030008B5024B1B681B6C019308BD8E
:10447C004002030008B5024B1B685B6C019308BD3E
:10448C004002030008B5024B1B681B68019308BD72
:10449C001C02030008B5024B1B685B68019308BD46
:1044AC001C02030008B5024B1B681B6C019308BD72
:1044BC001C02030008B5024B1B685B6C019308BD22
:1044CC001C0203000021FFF751BF0000024800232B
:1044DC000360FFF72BBE00BFB8E603200022406844
:1044EC001146FFF7A7BF002240681146FFF7B2BF85
:1044FC0040680022FFF7A6BF4068002281F001014E
:10450C00FFF790BF002340681A461946FFF782BF99
:10451C00002340681A461946FFF774BF0022406812
:10452C001146FFF767BF002240681146FFF752BFE4
:10453C00406800220221FFF755BF002340681A464D
:10454C00FFF740BF024B03225A60024A1A607047C1
:10455C00BCE6032024500B007047F8B50646154600
:10456C000C468F18BC4206D0336814F8011B9B68AC
:10457C0030469847F6E72846F8BD007C0022FFF746
:10458C0015BE007C0021FFF719BE007C0021FFF74F
:10459C001DBE007C0021FFF721BE007C0021FFF72F
:1045AC0025BE10B514210446FFF777FD204610BD3B
:1045BC0038B5044615464FF47A730022C4E901233A
:1045CC00094B2174084623602946FFF71FFEBF30B4
:1045DC0008D16B69DB0705D56868FFF75BFFE868F6
:1045EC00FFF758FF204638BD60500B00704710B5E0
:1045FC0018210446FFF751FD204610BDF0B5037D90
:10460C00062B8DB00E4600F104074FF0000412D0BB
:10461C0000F1080515F8011D0A22304600F043F997
:10462C00AF42044419D0002CF4D02E21304600F0B7
:10463C0037F90444EEE72F236A4639460A208DF8F1
:10464C000040FFF7EBFD6846FFF7E2FC33680246DB
:10465C00DB68694630469847044620460DB0F0BDED
:10466C0010B5054B0446112240F8043B002100F024
:10467C0029FC204610BD00BF88500B000346074A9A
:10468C0010B543F8042B01F1100251F8044B43F818
:10469C00044B9142F9D10A781A7010BD88500B0066
:1046AC0010B59DF8084044EA032343EA024242EA6B
:1046BC00016104234160037510BD000007B5064B72
:1046CC000360CB7800938B784A780978FFF7E8FF82
:1046DC0003B05DF804FB00BF88500B00014B024A8D
:1046EC001A607047C4E6032094500B000023406806
:1046FC001A46FFF767BE406800220221FFF772BE20
:10470C00002240681146FFF765BE00224068114642
:10471C00FFF770BE002340681A461946FFF772BEB9
:10472C00002340681A461946FFF774BE4068002102
:10473C00FFF798BE40680021FFF79CBE406800223E
:10474C0081F00101FFF76EBE40680022FFF77ABED0
:10475C00002240681146FFF77DBE002240681146DA
:10476C00FFF768BE2DE9F04395B014460D46074699
:10477C00FFF776FF00211C220DA8009100F0A2FB90
:10478C0040230C9320466B460CAA0021FFF756FDE4
:10479C00044600284BD1024601216868FFF72AFE27
:1047AC000221804622466868FFF724FE009E81465F
:1047BC002146002E3BD0002939D17368022B03D03F
:1047CC000A2B11D0F669F4E7B8F1000FFAD0716931
:1047DC0006A8043107ADFFF771FF0FCD3C1D0FC4C8
:1047EC002B6823704146EDE7B9F1000FEAD07469EC
:1047FC00102201A800F066FB06238DF8143001ADE1
:10480C0004F108031834186859682A4603C208339F
:10481C00A3421546F7D101A906A807ADFFF72EFF55
:10482C000FCD3C1D0FC42B6823704946CAE7009876
:10483C00FFF7FCFC384615B0BDE8F083024B034A89
:10484C001A6000225A607047C8E60320A0500B0083
:10485C00F8B506460D468F180024BD420CD03368BF
:10486C0015F8011B9B6830469847031E01DB1C445E
:10487C00F3E7002C08BF1C462046F8BD13B50446D0
:10488C00084659B10191FFF7C3FB23680199DB6816
:10489C000246204602B0BDE81040184702B010BDD9
:1048AC0003689B68184730B58BB00023012A8DF83C
:1048BC00243098BF0A2209AC0D46B1FBF2F101FB82
:1048CC00125303F0FF03092B94BF30333733DBB2A1
:1048DC00AA4204F8013DEFD92146FFF7CFFF0BB0F8
:1048EC0030BD0000014B00229A607047D0E60320D7
:1048FC0010B5044608462170FFF7A8FC002363603E
:10490C00204610BD054B02221A60054B054A9A60E1
:10491C000020C3E90000FFF721BD00BFECE6032037
:10492C00E0E603200000FFFF024B1A68024B1A60FE
:10493C00704700BF3CE60320F0E60320704741744B
:10494C00704708B5007CFFF7C1FC20EAE07008BD99
:10495C0008B5007CFFF792FC20EAE07008BD08B5B2
:10496C00007CFFF79BFC40EAE07008BD08B5007CBA
:10497C00FFF78CFC40EAE07008BD007CFFF796BCAA
:10498C0037B5457C04462DB1207C03B0BDE83040E2
:10499C00FFF76CBC007C0191FFF798FC0028019993
:1049AC00F2DC284603B030BD10B514210446FFF7E5
:1049BC0074FB204610BD000010B54FF47A7304460A
:1049CC00084611460022C4E90123044B236001234D
:1049DC0020746374FFF782FC204610BDF8500B0066
:1049EC00417470477047704708B50021007CFFF791
:1049FC009DFC40EAE07008BD08B50121007CFFF782
:104A0C0095FC40EAE07008BD08B5007CFFF786FC19
:104A1C0020EAE07008BD08B5007CFFF777FC20EABF
:104A2C00E07008BD13B50446007C0191FFF776FCDD
:104A3C000028019901DC607C20B1207CFFF77EFC12
:104A4C0020EAE07002B010BD007CFFF77FBC10B50F
:104A5C0014210446FFF721FB204610BD10B54FF47E
:104A6C007A73044608460021C4E90113044B236001
:104A7C000123207463741146FFF738FC204610BDE7
:104A8C0028510B00007C0022FFF738BC10B5142213
:104A9C000446002100F016FA204610BD10B50F4C4C
:104AAC0088B003A8FFF7F2FF2178BFF35B8F11F0FA
:104ABC0001010FD120460191FFF7F1FA019948B19C
:104ACC0003AA0748FFF7CAFF2046FFF7EDFA05488F
:104ADC0000F0E4F9024808B010BD00BFF4E6032072
:104AEC00F8E60320F1490B00002240681146FFF75D
:104AFC0081BC002240681146FFF79CBC0022406834
:104B0C001146FFF7A7BC40680022FFF79BBC40682A
:104B1C00002281F00101FFF785BC002340681A4692
:104B2C001946FFF777BC002340681A461946FFF771
:104B3C0069BC002240681146FFF74CBC406800225B
:104B4C000221FFF74FBC002340681A46FFF73ABC1E
:104B5C00024B04225A60024A1A6070470CE7032089
:104B6C0058510B00014B1860704700BF40E6032002
:104B7C0008B50B4B43B1FFF791FF03681B699847CE
:104B8C00002801DDAFF30080064B43B100F060F963
:104B9C0003681B699847002801DDAFF3008008BD4E
:104BAC00000000000000000008B5FFF7E1FFFFF770
:104BBC00CDFA014B186008BD28E703200548064ACA
:104BCC00064908B5121A00F06FF9054B054A1A6030
:104BDC0008BD00BF00F4032004F40320B4520B0002
:104BEC0000F403201E1C279A07B5002300931A46D5
:104BFC006FF07701FFF7D4FB03B05DF804FB000006
:104C0C0007B543880A2B08D0502B0BD1094B1B68D6
:104C1C004BB103B05DF804EB1847FFF7E5FF03B0A9
:104C2C005DF804FB002300931A466FF07701FFF741
:104C3C00B7FBF4E718E7032010B512480021FFF783
:104C4C0039FC114B1A68114B9A42114B0CBF0122C3
:104C5C0000221A7001D0FFF7B1FFFFF76FFA04467C
:104C6C0000F038F90B4B13B12046AFF30080002154
:104C7C000848FFF79FFBBDE8104007480021FFF7ED
:104C8C0085BB00BF714B0B0000F403201E1C279A40
:104C9C0014E70320000000000D4C0B00232813B573
:104CAC0002D9002002B010BDA0F10B03022B1AD8C0
:104CBC00174C2178BFF35B8F11F001010BD120460B
:104CCC000191FFF7ECF9019928B11248FFF710FE9A
:104CDC002046FFF7E9F90F4B1878FFF7BFFA0028C9
:104CEC00DFD10120DEE7012809D800F071F800219E
:104CFC00007CFFF783FA80F00100C0B2D2E70938DC
:104D0C000128EED800F0A4F8007CFFF7D7FAF2E700
:104D1C001CE7032020E70320232838B504460D4662
:104D2C000AD8FF2908D0FFF7B9FF28B12946204639
:104D3C00BDE83840FFF71ABA38BD38B504460D4601
:104D4C00FFF71CFAFF2810D0062804D84D2323FAAD
:104D5C0000F0C30709D42046FFF7A0FF28B129466D
:104D6C002046BDE83840FFF711BA38BD0D2810B504
:104D7C0004469CBF0E34A4B22046FFF78FFF50B1FF
:104D8C0003212046FFF7EAF9032804D12046BDE8A9
:104D9C001040FFF703BA002010BD704738B50A4B1E
:104DAC0003600123044643610849202000F074F895
:104DBC00202560600549A560284600F06DF8C4E91F
:104DCC000305204638BD00BF180001008C510B00B4
:104DDC0030B50E4D2978BFF35B8F11F0010487B00D
:104DEC0011D12846FFF75BF968B16846FFF7D6FF8B
:104DFC006A4621460648FFF7DBFB2846FFF754F9C5
:104E0C00044800F04BF8024807B030BD2CE70320F3
:104E1C0030E70320A74D0B007047000038B504465F
:104E2C0014252A46002100F04DF82580402507491D
:104E3C0025812846258200F02FF804496060284619
:104E4C0000F02AF8E060204638BD00BF8C510B0002
:104E5C0030B50E4D2978BFF35B8F11F0010487B08C
:104E6C0011D12846FFF71BF968B101A8FFF7D6FF4F
:104E7C0001AA21460648FFF79FFD2846FFF714F9C3
:104E8C00044800F00BF8024807B030BD44E703209B
:104E9C0048E70320254E0B00FFF7FDB80023014621
:104EAC001A46184600F044B80A44914200F1FF3308
:104EBC0000D1704710B511F8014B03F8014F914226
:104ECC00F9D110BD02440346934200D1704703F858
:104EDC00011BF9E738B5104B1D68AB6B0446B3B931
:104EEC001820FFF7CFFA0246A86320B90B4B0C48E9
:104EFC004221FFF7D7FA0B490B4BC0E900130B4BC0
:104F0C0083600B23838100210120C2E90401AB6B78
:104F1C0000221C615A6138BD40E603208D510B0004
:104F2C00A4510B000E33CDAB34126DE6ECDE050054
:104F3C002DE9F843DFF8B8800646D8F800001F4684
:104F4C000D46914600F056F8254B1C6834B9254C9B
:104F5C001C60254B13B11B68C4F8883063681F2B89
:104F6C0007DDD8F8000000F047F84FF0FF30BDE83F
:104F7C00F8834EB3D4F8880088B91C4B23B9D8F801
:104F8C00000000F038F8F0E74FF48470FFF77AFA7D
:104F9C000028F4D00023C0E94033C4F888006368CB
:104FAC0040F8239001229A4000EB8301D0F80031A5
:104FBC001343C0F80031022EC1F8807002BFD0F844
:104FCC0004311343C0F804316368D8F800005A1C4C
:104FDC000233626044F8235000F00EF80020C6E75C
:104FEC00E8E703205CE703200000000091440B007D
:104FFC00A4E6032070477047704700002D400B005B
:10500C0069400B0091400B0095400B000000000024
:10501C00000000000000000047450B003D450B0060
:10502C0033450B0029450B001D450B0011450B00AA
:10503C0039470B0041470B0005450B00FD440B00A5
:10504C00F3440B00E9440B0071470B000000000017
:10505C000000000065450B00AF450B0087450B00B9
:10506C0067450B008F450B0097450B009F450B00C8
:10507C00A7450B00000000000000000009460B00D3
:10508C00F9450B00FB450B0061707000000000003F
:10509C0000000000F9460B0003470B000D470B0006
:1050AC0017470B0021470B002D470B0039470B000E
:1050BC0041470B0049470B0055470B005D470B0060
:1050CC0067470B0071470B0025592D256D2D256465
:1050DC005425483A254D3A2553257A00617363745B
:1050EC00696D6500000000000000000049490B00DC
:1050FC00B5490B008D490B005D480B005D490B0059
:10510C0079490B006B490B0087490B004B490B008D
:10511C004F490B000000000000000000F3490B0099
:10512C005B4A0B00314A0B005D480B00234A0B0015
:10513C00F5490B00054A0B00554A0B00154A0B00AC
:10514C00ED490B000000000000000000534B0B0069
:10515C00494B0B003F4B0B00F54A0B00334B0B003C
:10516C00274B0B0039470B0041470B001B4B0B0027
:10517C00134B0B00094B0B00FF4A0B0071470B0044
:10518C00005245454E54206D616C6C6F63207375F5
:10519C0063636565646564002F746D702F6A656E5A
:1051AC006B696E732D4743432D31302D70697065DB
:1051BC006C696E652D34385F3230323031313234B7
:1051CC005F313630363138303633392F7372632FC6
:1051DC006E65776C69622F6E65776C69622F6C698E
:1051EC0062632F7374646C69622F72616E642E63D8
:1051FC000000000005410B00D9440B0051450B0089
:10520C00E9460B0049480B00F1480B0011490B0013
:08521C0035490B005D4B0B004E
:10522400040000001400000003000000474E550075
:10523400AFBB0CC92B6F75D5744AAC291E22FC89EF
:04524400299972F83A
:10524800E8500B0044E603200000000000000000C6
:105258000000000000000000000000000000000046
:105268000000000000000000000000000000000036
:105278000000000000000000000000000000000026
:105288000000000000000000000000000000000016
:105298000000000000000000000000000000000006
:0C52A8000000000000000000ECE7032004
:0452B40000000000F6
:1052BE0000000102030405060708090A0B0C0D0E77
:1052CE000F101112131415161718191A1B1C1D1E68
:0452DE001F20280065
:0452E20078563412B4
:04000003B000401CED
:00000001FF
